:020000040800F2
:1000000000500020850200088D02000895020008BB
:1000100021030008290300088103000800000000F4
:10002000000000000000000000000000D9030008EC
:10003000E103000800000000E90300086D1100085A
:10004000090400080904000809040008090400085C
:10005000090400080904000809040008090400084C
:10006000090400080904000809040008090400083C
:10007000090400080904000809040008090400082C
:10008000090400080904000809040008090400081C
:10009000090400080904000809040008090400080C
:1000A00009040008090400080904000809040008FC
:1000B00009040008090400080904000809040008EC
:1000C00009040008090400080904000809040008DC
:1000D000090400087912000809040008090400084E
:1000E00009040008090400080904000800000000D1
:1000F0000000000000000000000000000000000000
:1001000000000000000000005FF808F180B58EB02C
:1001100000AF00F061FA494B494A1A60494B484A1E
:100120001A60494BFB62494BBB62494B7B62BB6A1D
:100130003B6207E03B6A1A1D3A62FA6A111DF962D6
:1001400012681A607A6A3B6A9A42F3D83B4B1B6882
:10015000404A934204D13B4B1B683F4A934200D034
:10016000FEE73E4B364A1A603D4B354A1A603D4B1E
:100170007B633D4BFB617B6BBB6104E0BB691A1D7C
:10018000BA6100221A60FA69BB699A42F6D8334B09
:100190001B68002B03D1324B1B68002B00D0FEE7FD
:1001A00000F028FA3A463B1D1146184600F07EF949
:1001B0002E4A2F4BD31A9B10FB600023BB6007E035
:1001C0002B4ABB6852F823309847BB680133BB60A9
:1001D000FA68BB689A42F3DC264A274BD31A9B1075
:1001E000FB600023BB6007E0234ABB6852F8233062
:1001F0009847BB680133BB60FA68BB689A42F3DC7E
:100200007B683A681146184601F08EF838631B4A3D
:100210001B4BD31A9B107B617B693B6108E03B69F8
:10022000013B174A52F8233098473B69013B3B6139
:100230003B69002BF3DC386B00F0FEF80C0000206B
:10024000BABADECAA80000205C2200080C00002018
:10025000AC0000207856341232547698AC0000205E
:1002600094020020AC00002098020020380400080E
:10027000380400083804000838040008380400086E
:100280003804000880B500AFFFF740FF80B400AF2E
:1002900000BEFEE71EF0040F0CBFEFF30880EFF383
:1002A00009807146554A104700BF00BF80B588B02D
:1002B00002AF78603960184B5B6B7B61164B9B6BB0
:1002C0003B61154B9B6AFB60134B1B6B03F00203F6
:1002D000002B10D0104BDB6A002B0CDA4BF6AB6115
:1002E000786800F023FA0346002B04D00A4B4FF045
:1002F0000042DA620CE0094800F0EAF83B6800933B
:100300003B697A69F968786800F07AF900BEFEE71F
:100310001837BD4680BD00BF00ED00E0BC210008DD
:1003200080B400AF00BEFEE71EF0040F0CBFEFF379
:100330000880EFF309807146314A104700BF00BFC3
:1003400080B588B002AF786039600B4B5B6B7B6126
:10035000094B9B6B3B61084B9B6AFB60074800F0B5
:10036000B7F83B6800933B697A69F968786800F0F0
:1003700047F900BEFEE700BF00ED00E0CC21000819
:100380001EF0040F0CBFEFF30880EFF309807146F5
:100390001C4A104700BF00BF80B588B002AF78602C
:1003A00039600B4B5B6B7B61094B9B6B3B61084B73
:1003B0009B6AFB60074800F08BF83B6800933B6941
:1003C0007A69F968786800F01BF900BEFEE700BFA3
:1003D00000ED00E0D821000880B400AF00BEFEE7C9
:1003E00080B400AF00BEFEE780B400AF00BEFEE701
:1003F00080B400AF00BFBD4680BC7047AD020008AE
:10040000410300089903000880B400AF00BEFEE776
:100410005C2200080C000020AC0000205C220008D8
:100420000000000000000000AC0000209802002046
:080430000000000000000000C4
:1004380080B483B000AF7860FEE700BF80B584B0B9
:1004480000AF7860144B1B68002B02D1124B134A83
:100458001A60114B1B68FB607B68033323F00303AE
:100468007B600D4B1A687B6813440D4A934207D989
:1004780001F0C8F902460C2313604FF0FF3306E081
:10048800054B1A687B681344034A1360FB681846D7
:100498001037BD4680BD00BFB00000209802002084
:1004A800004C002080B483B000AF786039607B686E
:1004B80001221A603B68034A1A6000BF0C37BD4628
:1004C80080BC7047100000200FB480B582B000AF28
:1004D80007F114033B603B683A6980210A4801F040
:1004E800C3F978607B68002B05DD7B6819460648F0
:1004F80000F00CF878607B6818460837BD46BDE800
:10050800804004B0704700BFB800002080B582B0BA
:1005180000AF786039603968786800F005F80346FC
:1005280018460837BD4680BDB0B590B000AF7860BA
:1005380039607A683B68134493F90030002B0BD17B
:100548000423FB627B68BB62FC6ABD6A20462946BD
:10055800ABBE04467C6236E03B68FB6330E0FB6B75
:10056800102B28BF10233B630023BB630EE07B687E
:1005780093F9001007F10C02BB6B13440A461A707A
:10058800BB6B0133BB637B6801337B60BA6B3B6B2E
:100598009A42ECD307F10C02BB6B134400221A7089
:1005A80004237B6307F10C033B627C6B3D6A2046A6
:1005B8002946ABBE0446FC61FA6B3B6BD31AFB635E
:1005C800FB6B002BCBD13B6818464037BD46B0BD0E
:1005D80080B500AF00F0CEF8024B034A9A6000BF26
:1005E80080BD00BF00ED00E00000000880B500AF4E
:1005F80000F0F4F800BF80BD80B584B000AFF860AB
:10060800B9607A603B603448FFF75EFFFB681B689F
:1006180019463248FFF758FFFB685B6819463048AF
:10062800FFF752FFFB689B6819462E48FFF74CFFFF
:10063800FB68DB6819462C48FFF746FFFB681B6917
:1006480019462A48FFF740FFFB685B6919462848A6
:10065800FFF73AFFFB689B6919462648FFF734FF06
:10066800FB68DB6919462448FFF72EFF2348FFF78C
:100678002BFFB9682248FFF727FF224BDB6A194690
:100688002148FFF721FF1F4B1B6B19461F48FFF737
:100698001BFF1C4BDB6B19461D48FFF715FFBB689A
:1006A80003F08003002B03D079681A48FFF70CFF8A
:1006B800BB6803F40043002B03D039681648FFF7E2
:1006C80003FF1648FFF700FFB9691548FFF7FCFE5E
:1006D80000BF1037BD4680BDA0200008B02000082C
:1006E800C0200008D0200008E0200008F020000802
:1006F80000210008102100082021000830210008EE
:100708003C21000800ED00E04C2100085C210008B5
:100718006C2100087C2100088C2100089C2100081D
:10072800A421000880B485B000AF78600B467B80B8
:100738007B689B69FB60FB681B887A889A4213D1A7
:100748007B681B68BB60BB68032B03D0042B03D0FA
:1007580000230AE000BF00E000BF7B689B699A1C89
:100768007B689A61012300E0002318461437BD46D0
:1007780080BC704780B500AF154A154B1B6843F025
:10078800010313601249124B5A68124B13404B6015
:100798000F4A0F4B1B6823F0847323F480331360D4
:1007A8000B4A0B4B1B6823F480231360084A084B41
:1007B8005B6823F4FE035360054B4FF41F029A60F5
:1007C80000F078F8044B4FF000629A6000BF80BDDB
:1007D800001002400000FFF800ED00E080B485B092
:1007E80000AF0023FB600023BB6000237B602C4B21
:1007F8005B6803F00C03FB60FB68042B07D0082B35
:1008080009D0002B33D1274B274A1A6033E0254BF8
:10081800254A1A602FE0224B5B6803F47013BB6013
:100828001F4B5B6803F480337B60BB689B0C02330F
:10083800BB607B68002B06D1BB681C4A02FB03F334
:10084800184A136017E0164B5B6803F40033002B5B
:1008580006D0BB68154A02FB03F3124A13600AE08C
:10086800BB68114A02FB03F30E4A136003E00D4B09
:100878000D4A1A6000BF0A4B5B6803F0F0031B09BE
:100888000B4AD35CDBB2FB60064B1A68FB6822FAA2
:1008980003F3044A136000BF1437BD4680BC704799
:1008A800001002401800002000127A0000093D00E4
:1008B8001C00002080B500AF00F002F800BF80BD2A
:1008C80080B483B000AF00237B6000233B603A4ACA
:1008D800394B1B6843F480331360374B1B6803F4B0
:1008E80000333B607B6801337B603B68002B03D19E
:1008F8007B68B3F5A06FF0D12F4B1B6803F400336E
:10090800002B02D001233B6001E000233B603B68E1
:10091800012B4BD1294A294B1B6843F01003136064
:10092800264A264B1B6823F003031360234A234BF4
:100938001B6843F0020313601F4A1F4B5B68536038
:100948001D4A1D4B5B6853601B4A1B4B5B6843F495
:1009580080635360184A184B5B6823F47C13536018
:10096800154A154B5B6843F4E8135360124A124B5F
:100978001B6843F08073136000BF0F4B1B6803F0C4
:100988000073002BF9D00C4A0B4B5B6823F0030370
:100998005360094A084B5B6843F00203536000BF89
:1009A800054B5B6803F00C03082BF9D100BF0C372B
:1009B800BD4680BC704700BF0010024000200240C6
:1009C80080B483B000AF0346FB710B46BB7113467E
:1009D8007B71FB79012B3AD0022B6DD0002B00D014
:1009E800A4E0BB79072B15D85349534B1B68BA7938
:1009F80092000F2000FA02F2D24313400B604E48D7
:100A08004D4B1B687979BA79920001FA02F21343C7
:100A1800036086E0BB790F2B00F28380BB79083B2B
:100A2800BB714649454B1B68BA7992000F2000FA02
:100A380002F2D24313400B604048404B1B6879795F
:100A4800BA79920001FA02F21343036069E0BB79B4
:100A5800072B15D83A493A4B1B68BA7992000F20F0
:100A680000FA02F2D24313400B603548344B1B683E
:100A78007979BA79920001FA02F21343036052E0DD
:100A8800BB790F2B4FD8BB79083BBB712D492D4B38
:100A98001B68BA7992000F2000FA02F2D243134081
:100AA8000B602848274B1B687979BA79920001FABC
:100AB80002F21343036036E0BB79072B15D82249AD
:100AC800214B1B68BA7992000F2000FA02F2D24338
:100AD80013400B601C481C4B1B687979BA7992004B
:100AE80001FA02F2134303601FE0BB790F2B1CD8F5
:100AF800BB79083BBB711549144B1B68BA79920046
:100B08000F2000FA02F2D24313400B600F480F4B3C
:100B18001B687979BA79920001FA02F213430360EB
:100B280003E000BF02E000BF00E000BF00BF0C37D9
:100B3800BD4680BC704700BF000801400408014062
:100B4800000C0140040C0140001001400410014059
:100B580080B483B000AF0346FB710B46BB711346EC
:100B68007B71FB79012B1FD0022B38D0002B00D0D2
:100B780055E07B79012B09D12B492B4B1B68BA799E
:100B8800012000FA02F213430B6043E07B79002B4B
:100B980040D12549244B1B68BA79012000FA02F29A
:100BA800D24313400B6035E07B79012B09D11F49F3
:100BB8001E4B1B68BA79012000FA02F213430B603E
:100BC8002AE07B79002B27D11849184B1B68BA7982
:100BD800012000FA02F2D24313400B601CE07B793B
:100BE800012B09D11249124B1B68BA79012000FA6E
:100BF80002F213430B6011E07B79002B0ED10C49F4
:100C08000B4B1B68BA79012000FA02F2D243134059
:100C18000B6003E000BF02E000BF00E000BF00BFC0
:100C28000C37BD4680BC70470C0801400C0C0140D5
:100C38000C10014080B400AF044B054A5A60034BC6
:100C4800044A5A6000BFBD4680BC7047002002407D
:100C580023016745AB89EFCD80B483B000AF7860DE
:100C680000BF134BDB6803F00203002BF9D1104AD5
:100C78000F4B1B6943F0020313610D4A7B685361F4
:100C88000B4A0B4B1B6943F04003136100BF084B31
:100C9800DB6803F00203002BF9D1054A044B1B69FA
:100CA80023F00203136100BF0C37BD4680BC7047B8
:100CB8000020024080B582B000AF0C23FB7106E033
:100CC800FB79184600F00AF8FB790133FB71FB79D0
:100CD8003F2BF5D900BF0837BD4680BD80B483B02F
:100CE80000AF0346FB7100BF1E4BDB6803F0010336
:100CF800002BF9D11B4B1B69DB0903F00103002B07
:100D080005D0184B184A5A60164B184A5A60154AAB
:100D1800144B1B6943F002031361124AFB799B02CF
:100D280003F1006353610F4A0E4B1B6943F0400304
:100D3800136100BF0B4BDB6803F00103002BF9D1F3
:100D4800084A084BDB6843F02003D360054A054B8B
:100D58001B6923F00203136100BF0C37BD4680BC3A
:100D6800704700BF0020024023016745AB89EFCDE3
:100D780080B487B000AFF860B9601346FB7100BF5C
:100D8800254BDB6803F00103002BF9D1224B1B69CB
:100D9800DB0903F00103002B05D01F4B1F4A5A60E3
:100DA8001D4B1F4A5A600023FB752BE01A4A1A4B49
:100DB8001B6943F001031361FB7D5B00BA681344B0
:100DC8001B88BB82FB68FA7D5200B9680A44128806
:100DD8001A80FB680233FB6000BF0F4BDB6803F02F
:100DE8000103002BF9D10C4A0B4BDB6843F02003BD
:100DF800D360094A084B1B6923F001031361FB7D8B
:100E08000133FB75FA7DFB799A42CFD300BF1C37BB
:100E1800BD4680BC704700BF0020024023016745E3
:100E2800AB89EFCD80B487B000AFF860B9607A6065
:100E380000237B6100BF264BDB6803F00203002B15
:100E4800F9D1234A224B1B6943F0010313610CE0DB
:100E58007B695B00FA6813447A695200B9680A44EE
:100E680012881A807B6901337B617B695B007A6831
:100E7800D31A012BECD87B695A007B689A420ED0B2
:100E88007B695B00BA6813441B789BB263F0FF036D
:100E98007B827B695B00FA6813447A8A1A8000BFF8
:100EA8000B4BDB6803F00203002BF9D1084A084B0F
:100EB800DB6843F02003D360054A054B1B6923F028
:100EC8000103136100BF1C37BD4680BC704700BFDB
:100ED8000020024080B485B000AF0346FB71FB7967
:100EE8002F2B06D9FB79392B03D8FB79303BFB73C1
:100EF80002E0FB79373BFB73FB7B18461437BD4692
:100F080080BC704780B586B000AF78600023BB75A1
:100F18007B6801331B781846FFF7DCFF03467B75B7
:100F28007B6802331B781846FFF7D4FF03463B75EE
:100F38007B7D1B015AB297F9143013435BB2FB74E3
:100F48007B6803331B781846FFF7C4FF0346BB745E
:100F58007B6804331B781846FFF7BCFF03467B7495
:100F68007B6805331B781846FFF7B4FF03463B74CC
:100F78007B6806331B781846FFF7ACFF0346FB7304
:100F8800394B1B681B0C1B04374A1360FA7B364B22
:100F98001B6813433A7C120113437A7C12021343F1
:100FA800BA7C12031343304A13600023FB7547E0F1
:100FB800FB7D9B0009337A6813441B781846FFF7BA
:100FC80089FF0346BB74FB7D9B000A337A68134490
:100FD8001B781846FFF77EFF03467B74FB7D9B005A
:100FE8000B337A6813441B781846FFF773FF0346E0
:100FF8003B74FB7D9B000C337A6813441B781846BE
:10100800FFF768FF0346FB73BB7DFA7B120211B240
:101018003A7C120312B20A4311B27A7C12B20A4322
:1010280011B2BA7C120112B20A4312B291B20F4A3B
:1010380022F81310BB7D0133BB75FB7D0133FB75B3
:10104800FB7C5B08DBB2FA7D9A42B1D3064B186889
:10105800FB7C5B08DBB21A460449FFF789FE00BF38
:101068001837BD4680BD00BF2C0000203801002085
:1010780080B483B000AF786000BF0C37BD4680BC39
:10108800704700BF80B582B000AF78607B680833D6
:101098001B78302B02D0342B04D007E07868FFF798
:1010A80031FF03E07868FFF7E3FF00BF00BF0837B0
:1010B800BD4680BD80B400AF044B81221A60044B4A
:1010C80000221A6000BFBD4680BC70470010024075
:1010D8000410024080B483B000AF03460A46FB7197
:1010E8001346BB71BB791F2B25D8FB79012B0ED07A
:1010F800022B16D0002B00D01DE01149104B1B68A5
:10110800BA79012000FA02F213430B6013E00D498B
:101118000C4B1B68BA79012000FA02F213430B60EA
:1011280009E00949084B1B68BA79012000FA02F264
:1011380013430B6000BF00BF0C37BD4680BC70472F
:10114800141002401C1002401810024080B400AF76
:10115800034B00221A6000BFBD4680BC704700BF29
:1011680010E000E080B582B000AF124B1B78002B76
:1011780011D1114A104B1B6823F0020313600E4A69
:101188000D4B1B6843F0010313600B4B00225A60A0
:10119800094B00229A60094B1B689847064B1B684D
:1011A8001B0CDBB203F00103FB7100BF0837BD461F
:1011B80080BD00BF0402002010E000E00002002013
:1011C80080B400AF0E4B40F241329A600C4A0C4B8F
:1011D800DB6843F00803D360094A094BDB6843F036
:1011E8000403D360064A064BDB6843F40053D3601C
:1011F800034B00221A6000BFBD4680BC704700BF89
:101208000038014080B483B000AF0346FB71084A40
:10121800FB79536000BF064B1B689B0903F0010371
:10122800002BF8D000BF0C37BD4680BC704700BF0C
:101238000038014080B485B000AF78600123FB73AB
:101248000A4B1B685B0903F00103002B05D0074B11
:101258005B68DAB27B681A7001E00023FB73FB7BE2
:1012680018461437BD4680BC704700BF003801409F
:1012780080B500AF1C4B1B6803F02003002B31D056
:101288001A4B1B7B012B2DD1184B5A68174B9B68A7
:101298009A4214D0144A144B1B6823F0200313609D
:1012A800124B1A68114B5B6813440F4A5268D2B24A
:1012B8001A700E4B5B6801330C4A536012E00B4BFB
:1012C80000221A60094B00225A60084B00229A60DB
:1012D800064B00221A73064B1B68002B02D0044BE6
:1012E8001B68984700BF80BD0038014008020020F5
:1012F8001802002080B500AF054B064A1A60064B5D
:101308001B68064A1360054B1B68984700BF80BDE1
:1013180008ED00E0002C0008042C00082002002042
:1013280080B586B000AF0023FB8200237B750023C5
:10133800BB74FFF7BFFE0E210220FFF7CBFE022190
:101348000220FFF7C7FE04210220FFF7C3FE042195
:101358000020FFF7BFFE0A2209210020FFF730FB1B
:1013680004220A210020FFF72BFB01220D21022075
:10137800FFF726FB01220D210220FFF7E9FBFFF70B
:101388001FFFFFF7E3FE00237B75BB4B1B681B6841
:10139800BA4A934240F0A780B74B1B684FF0FF3220
:1013A8001A6000F0F9F9B64B4FF000621A6007F1C5
:1013B8000C0300221A601A7100233B7501220D21CB
:1013C8000220FFF7C5FB20E03B7D07F10C02134428
:1013D8001846FFF72FFF03467B743B7D07F1180281
:1013E800134413F80C3C1946A648FFF76DF83B7DEB
:1013F80007F11802134413F80C3C442B05D17B7DEC
:1014080001337B753B7D01333B757B7D052BDBD140
:101418009D48FFF759F801220D210220FFF798FB9C
:101428006420FFF7EFFE0A20FFF7ECFE6420FFF7C9
:10143800E9FE0A20FFF7E6FE944B1B78DBB21A465A
:10144800934B13441846FFF7F5FE03467B747B7CE9
:10145800012BF1D18D4B1B78DBB21A468C4B9B5C70
:10146800DBB2212B1ED1FB8A0133FB82FB8A194692
:101478008848FFF729F8884B1B78DBB2012B04D189
:10148800FFF718FC844B00221A708148FFF7FAFD19
:101498006420FFF7B7FE0A20FFF7B4FE7B4B00225B
:1014A8001A7006E0794B1B78DBB20133DAB2774B5E
:1014B8001A70764B1B78DBB21A46754B9B5CDBB215
:1014C800232BB9D101220D210220FFF741FB642013
:1014D800FFF798FE0A20FFF795FE7048FEF7F4FF25
:1014E800FFF708FFA8E76E4B1B681B68B3F1FF3FC7
:1014F80040F0A180604B1B681B68604A934200F073
:101508009A803B1D00221A601A710023FB74012285
:101518000D210220FFF71CFB1FE0FB7C3A1D134442
:101528001846FFF787FE03467B74FB7C07F1180219
:10153800134413F8143C19465248FEF7C5FFFB7CC8
:1015480007F11802134413F8143C442B05D17B7D92
:1015580001337B75FB7C0133FB747B7D052BDCD170
:101568004948FEF7B1FF01220D210220FFF7F0FAEA
:101578006420FFF747FE0A20FFF744FE6420FFF7C8
:1015880041FE0A20FFF73EFE404B1B78DBB21A46AD
:101598003F4B13441846FFF74DFE03467B747B7C94
:1015A800012BF1D1394B1B78DBB21A46384B9B5CC7
:1015B800DBB2232B0FD101220D210220FFF7C8FA3D
:1015C8006420FFF71FFE0A20FFF71CFE3348FEF7D2
:1015D8007BFFFFF78FFE2D4B1B78DBB21A462C4B97
:1015E8009B5CDBB2212B1ED1FB8A0133FB82FB8A79
:1015F80019462848FEF768FF274B1B78DBB2012BFA
:1016080004D1FFF757FB244B00221A702048FFF73C
:1016180039FD6420FFF7F6FD0A20FFF7F3FD1B4BA9
:1016280000221A70B0E7194B1B78DBB20133DAB22B
:10163800164B1A70A8E71A4B1B681B68194A934285
:101648007FF4A1AE0C4B1B681B68174A93427FF4CA
:101658009AAE164B1B681B68154A934201D100F0DD
:101668002BF8144B1B681B68114A93427FF48BAE0E
:1016780000F05AF887E600BF3800002022334455AE
:1016880008ED00E0E8210008F42100081C02002011
:101698003002002004220008300000201822000830
:1016A80034000020DDCCBBAA785634123C00002060
:1016B800540440254000002080B5ADF5816D00AF91
:1016C800174BC7F800340023A7F806340EE0B7F824
:1016D8000634B7F80624D7F800140A4411783A46B5
:1016E800D154B7F806340133A7F80634B7F80634EE
:1016F800B3F5806FEBD3FFF79DFA0948FFF7ACFA13
:101708003B460133074A1A603B464FF4806219464C
:101718000348FFF787FB00BF07F58167BD4680BD1B
:10172800002800087856341280B5ADF5816D00AFF9
:10173800174BC7F800340023A7F806340EE0B7F8B3
:101748000634B7F80624D7F800140A4411783A4644
:10175800D154B7F806340133A7F80634B7F806347D
:10176800B3F5806FEBD3FFF765FA0948FFF774FA12
:101778003B460233074A1A603B464FF480621946DB
:101788000348FFF74FFB00BF07F58167BD4680BDE3
:10179800002800087856341280B5ADF5816D00AF89
:1017A800174BC7F800340023A7F806340EE0B7F843
:1017B8000634B7F80624D7F800140A4411783A46D4
:1017C800D154B7F806340133A7F80634B7F806340D
:1017D800B3F5806FEBD3FFF72DFA0948FFF73CFA12
:1017E8003B464FF0FF321A603B464FF48062194681
:1017F8000348FFF717FB00BF07F58167BD4680BDAB
:1018080000280008014B1868704700BFA40000209A
:1018180030B5141E05469BB0184604DA8B232B609E
:101828004FF0FF301DE04FF40273ADF80C300CBFE1
:10183800234604F1FF33029305934FF6FF7300919B
:101848000491ADF80E3002461E9B6946284600F00A
:1018580073F8431CBCBF8B232B6014B1009B002280
:101868001A701BB030BD000007B5009313460A4636
:10187800014603480068FFF7CBFF03B05DF804FB9F
:10188800A40000202DE9F0478E6882469E420C464F
:10189800914698463ED88A8912F4906F3AD02568C6
:1018A800096902236F1A656905EB450595FBF3F590
:1018B8007B1C43449D4238BF1D4653050FD529461E
:1018C80000F04AFB064698B13A46216900F0D2FA80
:1018D800A38923F4906343F08003A38113E02A468D
:1018E80000F098FB064670B92169504600F0E8FA06
:1018F8000C23CAF80030A3894FF0FF3043F04003AF
:10190800A381BDE8F08726613E44266046466561AE
:10191800ED1BA560464528BF464649463246206825
:1019280000F0B3FAA36800209B1BA36023681E4441
:101938002660BDE8F08700002DE9F04F9DB00393C5
:101948008B8980461C060D4616460DD50B695BB97A
:10195800402100F001FB2860286118B90C23C8F861
:101968000030CDE040236B610023099320238DF8DC
:101978002930DFF89CB130238DF82A3037463C46B1
:1019880014F8013B1BB9B7EB060910D003E0252B6F
:10199800F9D02746F3E74B46324629464046FFF73B
:1019A80071FF013000F0A780099B4B4409933B78F5
:1019B800002B00F0A08000234FF0FF320493079320
:1019C800059206938DF853301A9301260522217843
:1019D8004E4800F041FA671C049B38B14B4A3C461C
:1019E800801A06FA00F018430490EFE7D90644BFBE
:1019F80020228DF853201A0744BF2B228DF853203C
:101A080022782A2A03D0079A00210A200BE0039A99
:101A1800111D12680391002A10DA524243F00200A5
:101A2800079204900BE027463B780134303B092BA2
:101A380003D800FB02320121F5E701B107923B7898
:101A48002E2B1ED17B782A2B0AD1039B02371A1D15
:101A58001B680392002BB8BF4FF0FF33059310E0CB
:101A6800002319460593781C0A2407463A78013062
:101A7800303A092A03D804FB01210123F5E703B111
:101A8800059103223978224800F0E6F940B1402355
:101A9800CBEB000003FA00F0049B013718430490D5
:101AA800397806221B487E1C8DF8281000F0D4F9DE
:101AB80088B1194B33B9039B073323F00703083365
:101AC800039314E003AB00932A46144B04A9404641
:101AD800AFF3008007E003AB00932A460F4B04A93D
:101AE800404600F093F8B0F1FF3F824603D0099BCF
:101AF8005344099342E7AB895B0601D4099801E096
:101B08004FF0FF301DB0BDE8F08F00BF272200085E
:101B18002D22000831220008000000008D1800085E
:101B28002DE9F04791461F460A698B68064693429D
:101B3800B8BF1346C9F8003091F843200C46DDF8C9
:101B4800208012B10133C9F800302368990642BFDA
:101B5800D9F800300233C9F80030256815F00605B9
:101B680010D104F1190A07E00123524639463046DC
:101B7800C04701301AD00135E368D9F800209B1A14
:101B88009D42F1DB94F843302268003318BF0123EB
:101B980092060FD5E118302081F843005A1C94F8BA
:101BA80045102244023382F8431003E04FF0FF301F
:101BB800BDE8F08704F1430239463046C04701309A
:101BC800F4D02268D9F80050E36802F00602042A2B
:101BD80008BF5D1B2269A3680CBF25EAE5750025CF
:101BE8009342C4BF9B1AED184FF000091A344D45B3
:101BF80009D00123224639463046C0470130D5D0A6
:101C080009F10109F3E70020BDE8F0872DE9F04369
:101C180017460A7E85B06E2A984606460C460C9BE7
:101C280001F1430E00F0AE8011D8632A22D009D802
:101C3800002A00F0BB80582A40F0CA8081F845206D
:101C4800834955E0642A1ED0692A1CD0C0E0732A53
:101C580000F0B08009D86F2A2ED0702A40F0B880E2
:101C68000A6842F020020A603EE0752A24D0782AE9
:101C78003AD0ADE01A6801F14205111D19601368E8
:101C880084F84230A8E021681A6811F0800F02D069
:101C9800111D196008E011F0400F02F104011960EC
:101CA80002D0B2F9003000E01368002B3CDA2D2294
:101CB8005B4284F8432037E021681A6811F0800FEE
:101CC80002D0111D196007E011F0400F02F1040164
:101CD800196001D0138800E01368227E5C496F2ADE
:101CE80014BF0A2208221BE078225A4984F84520AA
:101CF8002268186812F0800F00F104051D6003D1F6
:101D0800550601D5038800E00368D00744BF42F0B8
:101D1800200222601BB9226822F0200222601022D1
:101D2800002084F8430001E049490A226568002D33
:101D3800A56008DB206820F0040020602BB9002D86
:101D48007DD175460CE0002B79D07546B3FBF2F0D7
:101D580002FB1033CB5C05F8013D03460028F5D1A2
:101D6800082A0BD12368DA0708D5236962689A42E2
:101D7800DEBF302305F8013C05F1FF35C5EB0E0346
:101D880023612EE008681A6810F0800F496903D0B3
:101D9800101D1860136808E010F0400F02F10400ED
:101DA8001860136801D0198000E0196000232361CE
:101DB800754616E01A68111D1960156800216268D9
:101DC800284600F049F808B1401B6060636804E0E9
:101DD80004F1420584F8422001232361002384F89A
:101DE8004330CDF800803B4603AA21463046FFF732
:101DF80097FE013002D14FF0FF3026E023692A46D2
:101E080039463046C0470130F5D023689B0710D5C6
:101E1800002504F1190907E001234A4639463046EE
:101E2800C0470130E7D00135E368039A9B1A9D4209
:101E3800F2DBE068039B9842B8BF184605E00B78D0
:101E480004F1420584F842308AE705B0BDE8F08322
:101E5800382200084922000810B5C9B2024490424D
:101E6800034605D01C7801308C42F8D1184610BDC5
:101E7800002010BD10B5431E0A44914204D011F849
:101E8800014B03F8014FF8E710BD884210B501EB8C
:101E9800020301D8421E0BE09842FBD28118D21AE5
:101EA800D34204D013F8014D01F8014DF8E710BDF5
:101EB800994204D011F8014B02F8014FF8E710BD20
:101EC80038B50546002944D051F8043C0C1F002BB6
:101ED800B8BFE41800F0D4F81E4A1368114613B9C5
:101EE8006360146030E0A3420DD92268A0188342D1
:101EF80001BF18685B681218226063600C6023E0F9
:101F0800A24203D813465A68002AF9D1186819184A
:101F1800A1420BD12168014458188242196013D19B
:101F280010685268014419605A600DE002D90C2308
:101F38002B6009E021686018824201BF106852686E
:101F48000918216062605C602846BDE8384000F0EE
:101F580098B838BD2802002070B5CD1C25F00305BF
:101F680008350C2D38BF0C25002D064601DBA9428B
:101F780002D90C23336046E000F082F8234B1C683A
:101F88001A462146A1B10B685B1B0ED40B2B03D953
:101F98000B60CC18CD501EE08C420BBF63684B68B9
:101FA8001360636018BF0C4615E00C464968E9E702
:101FB800174C23681BB9304600F052F820602946B8
:101FC800304600F04DF8431C18D0C41C24F003041C
:101FD800A0420DD12560304600F053F804F10B0003
:101FE800231D20F00700C31A0ED05A42E25070BDDC
:101FF800211A304600F034F80130EBD10C2333605D
:10200800304600F03EF8002070BD00BF28020020D6
:1020180024020020F8B5074615460E4621B9114698
:10202800BDE8F840FFF798BF1AB9FFF749FF2846FF
:10203800F8BD00F027F885420ED929463846FFF743
:102048008BFF044650B131462A46FFF713FF31464D
:102058003846FFF735FF01E03046F8BD2046F8BDA9
:1020680038B5064C0023054608462360FEF7E6F916
:10207800431C02D1236803B12B6038BD2C02002019
:102088007047704751F8040C0028BEBF091851F872
:10209800043CC01804387047537461636B2066723F
:1020A800616D653A0A000000205230203D2020254D
:1020B8003038580A00000000205231203D202025E9
:1020C8003038580A00000000205232203D202025D8
:1020D8003038580A00000000205233203D202025C7
:1020E8003038580A0000000020523132203D2025A7
:1020F8003038580A00000000204C52203D2020258E
:102108003038580A00000000205043203D20202588
:102118003038580A0000000020505352203D202536
:102128003038580A000000004653522F4641523AB0
:102138000A0000002043465352203D202025303815
:10214800580A00002048465352203D2020253038A8
:10215800580A00002044465352203D20202530389C
:10216800580A00002041465352203D20202530388F
:10217800580A0000204D4D464152203D2025303858
:10218800580A00002042464152203D202025303880
:10219800580A00004D6973630A000000204C522F52
:1021A8004558435F52455455524E3D2025303858C6
:1021B8000A0000005B486172644661756C745D0AD0
:1021C800000000005B4275734661756C745D0A001F
:1021D8005B55736167654661756C745D0A00000044
:1021E80068732D2D2D2D25780A00000048616E6436
:1021F8007368616B6520646F6E650A005265636F72
:1022080072642025642052656369657665640A00F6
:10221800466C617368696E6720446F6E650A0023B7
:102228002D302B2000686C4C0065666745464700DA
:1022380030313233343536373839414243444546F4
:10224800003031323334353637383961626364658A
:0222580066001E
:10225C0078563412B40000200000000000A24A049A
:10226C00000000000000000001020304060708093A
:10227C000000000801FFFFFF0028000800000020FC
:10228C0004000020080000200000000000000000F6
:10229C000000000000000000000000000000000032
:1022AC000000000000000000000000000000000022
:1022BC000000000000000000000000000000000012
:1022CC000000000000000000000000000000000002
:1022DC0000000000000000000000000000000000F2
:1022EC0000000000000000004400002032547698EA
:040000050800010DE1
:00000001FF
